{
	"data": {
		"bytecode": {
			"linkReferences": {},
			"object": "608060405234801561000f575f80fd5b50610a218061001d5f395ff3fe608060405234801561000f575f80fd5b506004361061007b575f3560e01c806345d3cc811161005957806345d3cc81146100fb578063998dd3ca1461012b5780639d26373c1461015b578063b53d58201461018b5761007b565b80631436163e1461007f5780632261a7761461009b5780633c735ee6146100cb575b5f80fd5b61009960048036038101906100949190610517565b6101bb565b005b6100b560048036038101906100b091906105a3565b61021d565b6040516100c2919061068a565b60405180910390f35b6100e560048036038101906100e091906106dd565b6102a5565b6040516100f2919061068a565b60405180910390f35b6101156004803603810190610110919061073a565b610335565b60405161012291906107c0565b60405180910390f35b6101456004803603810190610140919061073a565b610378565b60405161015291906107e8565b60405180910390f35b6101756004803603810190610170919061073a565b6103b2565b604051610182919061068a565b60405180910390f35b6101a560048036038101906101a09190610517565b610433565b6040516101b2919061068a565b60405180910390f35b5f81908060018154018082558091505060019003905f5260205f20015f9091909190916101000a81548173ffffffffffffffffffffffffffffffffffffffff021916908373ffffffffffffffffffffffffffffffffffffffff16021790555050565b60608373ffffffffffffffffffffffffffffffffffffffff1663728d9b7484846040518363ffffffff1660e01b815260040161025a92919061083b565b5f60405180830381865afa158015610274573d5f803e3d5ffd5b505050506040513d5f823e3d601f19601f8201168201806040525081019061029c9190610977565b90509392505050565b60606102b084610335565b73ffffffffffffffffffffffffffffffffffffffff1663728d9b7484846040518363ffffffff1660e01b81526004016102ea92919061083b565b5f60405180830381865afa158015610304573d5f803e3d5ffd5b505050506040513d5f823e3d601f19601f8201168201806040525081019061032c9190610977565b90509392505050565b5f808281548110610349576103486109be565b5b905f5260205f20015f9054906101000a900473ffffffffffffffffffffffffffffffffffffffff169050919050565b5f8181548110610386575f80fd5b905f5260205f20015f915054906101000a900473ffffffffffffffffffffffffffffffffffffffff1681565b60606103bd82610335565b73ffffffffffffffffffffffffffffffffffffffff166350d853156040518163ffffffff1660e01b81526004015f60405180830381865afa158015610404573d5f803e3d5ffd5b505050506040513d5f823e3d601f19601f8201168201806040525081019061042c9190610977565b9050919050565b60608173ffffffffffffffffffffffffffffffffffffffff166350d853156040518163ffffffff1660e01b81526004015f60405180830381865afa15801561047d573d5f803e3d5ffd5b505050506040513d5f823e3d601f19601f820116820180604052508101906104a59190610977565b9050919050565b5f604051905090565b5f80fd5b5f80fd5b5f73ffffffffffffffffffffffffffffffffffffffff82169050919050565b5f6104e6826104bd565b9050919050565b6104f6816104dc565b8114610500575f80fd5b50565b5f81359050610511816104ed565b92915050565b5f6020828403121561052c5761052b6104b5565b5b5f61053984828501610503565b91505092915050565b5f80fd5b5f80fd5b5f80fd5b5f8083601f84011261056357610562610542565b5b8235905067ffffffffffffffff8111156105805761057f610546565b5b60208301915083600182028301111561059c5761059b61054a565b5b9250929050565b5f805f604084860312156105ba576105b96104b5565b5b5f6105c786828701610503565b935050602084013567ffffffffffffffff8111156105e8576105e76104b9565b5b6105f48682870161054e565b92509250509250925092565b5f81519050919050565b5f82825260208201905092915050565b5f5b8381101561063757808201518184015260208101905061061c565b5f8484015250505050565b5f601f19601f8301169050919050565b5f61065c82610600565b610666818561060a565b935061067681856020860161061a565b61067f81610642565b840191505092915050565b5f6020820190508181035f8301526106a28184610652565b905092915050565b5f819050919050565b6106bc816106aa565b81146106c6575f80fd5b50565b5f813590506106d7816106b3565b92915050565b5f805f604084860312156106f4576106f36104b5565b5b5f610701868287016106c9565b935050602084013567ffffffffffffffff811115610722576107216104b9565b5b61072e8682870161054e565b92509250509250925092565b5f6020828403121561074f5761074e6104b5565b5b5f61075c848285016106c9565b91505092915050565b5f819050919050565b5f61078861078361077e846104bd565b610765565b6104bd565b9050919050565b5f6107998261076e565b9050919050565b5f6107aa8261078f565b9050919050565b6107ba816107a0565b82525050565b5f6020820190506107d35f8301846107b1565b92915050565b6107e2816104dc565b82525050565b5f6020820190506107fb5f8301846107d9565b92915050565b828183375f83830152505050565b5f61081a838561060a565b9350610827838584610801565b61083083610642565b840190509392505050565b5f6020820190508181035f83015261085481848661080f565b90509392505050565b5f80fd5b7f4e487b71000000000000000000000000000000000000000000000000000000005f52604160045260245ffd5b61089782610642565b810181811067ffffffffffffffff821117156108b6576108b5610861565b5b80604052505050565b5f6108c86104ac565b90506108d4828261088e565b919050565b5f67ffffffffffffffff8211156108f3576108f2610861565b5b6108fc82610642565b9050602081019050919050565b5f61091b610916846108d9565b6108bf565b9050828152602081018484840111156109375761093661085d565b5b61094284828561061a565b509392505050565b5f82601f83011261095e5761095d610542565b5b815161096e848260208601610909565b91505092915050565b5f6020828403121561098c5761098b6104b5565b5b5f82015167ffffffffffffffff8111156109a9576109a86104b9565b5b6109b58482850161094a565b91505092915050565b7f4e487b71000000000000000000000000000000000000000000000000000000005f52603260045260245ffdfea26469706673582212202b7fd2f70dc984e26ffe33e45e0be733fa792baf66b3135bbf55485058bc907264736f6c63430008150033",
			"opcodes": "PUSH1 0x80 PUSH1 0x40 MSTORE CALLVALUE DUP1 ISZERO PUSH2 0xF JUMPI PUSH0 DUP1 REVERT JUMPDEST POP PUSH2 0xA21 DUP1 PUSH2 0x1D PUSH0 CODECOPY PUSH0 RETURN INVALID PUSH1 0x80 PUSH1 0x40 MSTORE CALLVALUE DUP1 ISZERO PUSH2 0xF JUMPI PUSH0 DUP1 REVERT JUMPDEST POP PUSH1 0x4 CALLDATASIZE LT PUSH2 0x7B JUMPI PUSH0 CALLDATALOAD PUSH1 0xE0 SHR DUP1 PUSH4 0x45D3CC81 GT PUSH2 0x59 JUMPI DUP1 PUSH4 0x45D3CC81 EQ PUSH2 0xFB JUMPI DUP1 PUSH4 0x998DD3CA EQ PUSH2 0x12B JUMPI DUP1 PUSH4 0x9D26373C EQ PUSH2 0x15B JUMPI DUP1 PUSH4 0xB53D5820 EQ PUSH2 0x18B JUMPI PUSH2 0x7B JUMP JUMPDEST DUP1 PUSH4 0x1436163E EQ PUSH2 0x7F JUMPI DUP1 PUSH4 0x2261A776 EQ PUSH2 0x9B JUMPI DUP1 PUSH4 0x3C735EE6 EQ PUSH2 0xCB JUMPI JUMPDEST PUSH0 DUP1 REVERT JUMPDEST PUSH2 0x99 PUSH1 0x4 DUP1 CALLDATASIZE SUB DUP2 ADD SWAP1 PUSH2 0x94 SWAP2 SWAP1 PUSH2 0x517 JUMP JUMPDEST PUSH2 0x1BB JUMP JUMPDEST STOP JUMPDEST PUSH2 0xB5 PUSH1 0x4 DUP1 CALLDATASIZE SUB DUP2 ADD SWAP1 PUSH2 0xB0 SWAP2 SWAP1 PUSH2 0x5A3 JUMP JUMPDEST PUSH2 0x21D JUMP JUMPDEST PUSH1 0x40 MLOAD PUSH2 0xC2 SWAP2 SWAP1 PUSH2 0x68A JUMP JUMPDEST PUSH1 0x40 MLOAD DUP1 SWAP2 SUB SWAP1 RETURN JUMPDEST PUSH2 0xE5 PUSH1 0x4 DUP1 CALLDATASIZE SUB DUP2 ADD SWAP1 PUSH2 0xE0 SWAP2 SWAP1 PUSH2 0x6DD JUMP JUMPDEST PUSH2 0x2A5 JUMP JUMPDEST PUSH1 0x40 MLOAD PUSH2 0xF2 SWAP2 SWAP1 PUSH2 0x68A JUMP JUMPDEST PUSH1 0x40 MLOAD DUP1 SWAP2 SUB SWAP1 RETURN JUMPDEST PUSH2 0x115 PUSH1 0x4 DUP1 CALLDATASIZE SUB DUP2 ADD SWAP1 PUSH2 0x110 SWAP2 SWAP1 PUSH2 0x73A JUMP JUMPDEST PUSH2 0x335 JUMP JUMPDEST PUSH1 0x40 MLOAD PUSH2 0x122 SWAP2 SWAP1 PUSH2 0x7C0 JUMP JUMPDEST PUSH1 0x40 MLOAD DUP1 SWAP2 SUB SWAP1 RETURN JUMPDEST PUSH2 0x145 PUSH1 0x4 DUP1 CALLDATASIZE SUB DUP2 ADD SWAP1 PUSH2 0x140 SWAP2 SWAP1 PUSH2 0x73A JUMP JUMPDEST PUSH2 0x378 JUMP JUMPDEST PUSH1 0x40 MLOAD PUSH2 0x152 SWAP2 SWAP1 PUSH2 0x7E8 JUMP JUMPDEST PUSH1 0x40 MLOAD DUP1 SWAP2 SUB SWAP1 RETURN JUMPDEST PUSH2 0x175 PUSH1 0x4 DUP1 CALLDATASIZE SUB DUP2 ADD SWAP1 PUSH2 0x170 SWAP2 SWAP1 PUSH2 0x73A JUMP JUMPDEST PUSH2 0x3B2 JUMP JUMPDEST PUSH1 0x40 MLOAD PUSH2 0x182 SWAP2 SWAP1 PUSH2 0x68A JUMP JUMPDEST PUSH1 0x40 MLOAD DUP1 SWAP2 SUB SWAP1 RETURN JUMPDEST PUSH2 0x1A5 PUSH1 0x4 DUP1 CALLDATASIZE SUB DUP2 ADD SWAP1 PUSH2 0x1A0 SWAP2 SWAP1 PUSH2 0x517 JUMP JUMPDEST PUSH2 0x433 JUMP JUMPDEST PUSH1 0x40 MLOAD PUSH2 0x1B2 SWAP2 SWAP1 PUSH2 0x68A JUMP JUMPDEST PUSH1 0x40 MLOAD DUP1 SWAP2 SUB SWAP1 RETURN JUMPDEST PUSH0 DUP2 SWAP1 DUP1 PUSH1 0x1 DUP2 SLOAD ADD DUP1 DUP3 SSTORE DUP1 SWAP2 POP POP PUSH1 0x1 SWAP1 SUB SWAP1 PUSH0 MSTORE PUSH1 0x20 PUSH0 KECCAK256 ADD PUSH0 SWAP1 SWAP2 SWAP1 SWAP2 SWAP1 SWAP2 PUSH2 0x100 EXP DUP2 SLOAD DUP2 PUSH20 0xFFFFFFFFFFFFFFFFFFFFFFFFFFFFFFFFFFFFFFFF MUL NOT AND SWAP1 DUP4 PUSH20 0xFFFFFFFFFFFFFFFFFFFFFFFFFFFFFFFFFFFFFFFF AND MUL OR SWAP1 SSTORE POP POP JUMP JUMPDEST PUSH1 0x60 DUP4 PUSH20 0xFFFFFFFFFFFFFFFFFFFFFFFFFFFFFFFFFFFFFFFF AND PUSH4 0x728D9B74 DUP5 DUP5 PUSH1 0x40 MLOAD DUP4 PUSH4 0xFFFFFFFF AND PUSH1 0xE0 SHL DUP2 MSTORE PUSH1 0x4 ADD PUSH2 0x25A SWAP3 SWAP2 SWAP1 PUSH2 0x83B JUMP JUMPDEST PUSH0 PUSH1 0x40 MLOAD DUP1 DUP4 SUB DUP2 DUP7 GAS STATICCALL ISZERO DUP1 ISZERO PUSH2 0x274 JUMPI RETURNDATASIZE PUSH0 DUP1 RETURNDATACOPY RETURNDATASIZE PUSH0 REVERT JUMPDEST POP POP POP POP PUSH1 0x40 MLOAD RETURNDATASIZE PUSH0 DUP3 RETURNDATACOPY RETURNDATASIZE PUSH1 0x1F NOT PUSH1 0x1F DUP3 ADD AND DUP3 ADD DUP1 PUSH1 0x40 MSTORE POP DUP2 ADD SWAP1 PUSH2 0x29C SWAP2 SWAP1 PUSH2 0x977 JUMP JUMPDEST SWAP1 POP SWAP4 SWAP3 POP POP POP JUMP JUMPDEST PUSH1 0x60 PUSH2 0x2B0 DUP5 PUSH2 0x335 JUMP JUMPDEST PUSH20 0xFFFFFFFFFFFFFFFFFFFFFFFFFFFFFFFFFFFFFFFF AND PUSH4 0x728D9B74 DUP5 DUP5 PUSH1 0x40 MLOAD DUP4 PUSH4 0xFFFFFFFF AND PUSH1 0xE0 SHL DUP2 MSTORE PUSH1 0x4 ADD PUSH2 0x2EA SWAP3 SWAP2 SWAP1 PUSH2 0x83B JUMP JUMPDEST PUSH0 PUSH1 0x40 MLOAD DUP1 DUP4 SUB DUP2 DUP7 GAS STATICCALL ISZERO DUP1 ISZERO PUSH2 0x304 JUMPI RETURNDATASIZE PUSH0 DUP1 RETURNDATACOPY RETURNDATASIZE PUSH0 REVERT JUMPDEST POP POP POP POP PUSH1 0x40 MLOAD RETURNDATASIZE PUSH0 DUP3 RETURNDATACOPY RETURNDATASIZE PUSH1 0x1F NOT PUSH1 0x1F DUP3 ADD AND DUP3 ADD DUP1 PUSH1 0x40 MSTORE POP DUP2 ADD SWAP1 PUSH2 0x32C SWAP2 SWAP1 PUSH2 0x977 JUMP JUMPDEST SWAP1 POP SWAP4 SWAP3 POP POP POP JUMP JUMPDEST PUSH0 DUP1 DUP3 DUP2 SLOAD DUP2 LT PUSH2 0x349 JUMPI PUSH2 0x348 PUSH2 0x9BE JUMP JUMPDEST JUMPDEST SWAP1 PUSH0 MSTORE PUSH1 0x20 PUSH0 KECCAK256 ADD PUSH0 SWAP1 SLOAD SWAP1 PUSH2 0x100 EXP SWAP1 DIV PUSH20 0xFFFFFFFFFFFFFFFFFFFFFFFFFFFFFFFFFFFFFFFF AND SWAP1 POP SWAP2 SWAP1 POP JUMP JUMPDEST PUSH0 DUP2 DUP2 SLOAD DUP2 LT PUSH2 0x386 JUMPI PUSH0 DUP1 REVERT JUMPDEST SWAP1 PUSH0 MSTORE PUSH1 0x20 PUSH0 KECCAK256 ADD PUSH0 SWAP2 POP SLOAD SWAP1 PUSH2 0x100 EXP SWAP1 DIV PUSH20 0xFFFFFFFFFFFFFFFFFFFFFFFFFFFFFFFFFFFFFFFF AND DUP2 JUMP JUMPDEST PUSH1 0x60 PUSH2 0x3BD DUP3 PUSH2 0x335 JUMP JUMPDEST PUSH20 0xFFFFFFFFFFFFFFFFFFFFFFFFFFFFFFFFFFFFFFFF AND PUSH4 0x50D85315 PUSH1 0x40 MLOAD DUP2 PUSH4 0xFFFFFFFF AND PUSH1 0xE0 SHL DUP2 MSTORE PUSH1 0x4 ADD PUSH0 PUSH1 0x40 MLOAD DUP1 DUP4 SUB DUP2 DUP7 GAS STATICCALL ISZERO DUP1 ISZERO PUSH2 0x404 JUMPI RETURNDATASIZE PUSH0 DUP1 RETURNDATACOPY RETURNDATASIZE PUSH0 REVERT JUMPDEST POP POP POP POP PUSH1 0x40 MLOAD RETURNDATASIZE PUSH0 DUP3 RETURNDATACOPY RETURNDATASIZE PUSH1 0x1F NOT PUSH1 0x1F DUP3 ADD AND DUP3 ADD DUP1 PUSH1 0x40 MSTORE POP DUP2 ADD SWAP1 PUSH2 0x42C SWAP2 SWAP1 PUSH2 0x977 JUMP JUMPDEST SWAP1 POP SWAP2 SWAP1 POP JUMP JUMPDEST PUSH1 0x60 DUP2 PUSH20 0xFFFFFFFFFFFFFFFFFFFFFFFFFFFFFFFFFFFFFFFF AND PUSH4 0x50D85315 PUSH1 0x40 MLOAD DUP2 PUSH4 0xFFFFFFFF AND PUSH1 0xE0 SHL DUP2 MSTORE PUSH1 0x4 ADD PUSH0 PUSH1 0x40 MLOAD DUP1 DUP4 SUB DUP2 DUP7 GAS STATICCALL ISZERO DUP1 ISZERO PUSH2 0x47D JUMPI RETURNDATASIZE PUSH0 DUP1 RETURNDATACOPY RETURNDATASIZE PUSH0 REVERT JUMPDEST POP POP POP POP PUSH1 0x40 MLOAD RETURNDATASIZE PUSH0 DUP3 RETURNDATACOPY RETURNDATASIZE PUSH1 0x1F NOT PUSH1 0x1F DUP3 ADD AND DUP3 ADD DUP1 PUSH1 0x40 MSTORE POP DUP2 ADD SWAP1 PUSH2 0x4A5 SWAP2 SWAP1 PUSH2 0x977 JUMP JUMPDEST SWAP1 POP SWAP2 SWAP1 POP JUMP JUMPDEST PUSH0 PUSH1 0x40 MLOAD SWAP1 POP SWAP1 JUMP JUMPDEST PUSH0 DUP1 REVERT JUMPDEST PUSH0 DUP1 REVERT JUMPDEST PUSH0 PUSH20 0xFFFFFFFFFFFFFFFFFFFFFFFFFFFFFFFFFFFFFFFF DUP3 AND SWAP1 POP SWAP2 SWAP1 POP JUMP JUMPDEST PUSH0 PUSH2 0x4E6 DUP3 PUSH2 0x4BD JUMP JUMPDEST SWAP1 POP SWAP2 SWAP1 POP JUMP JUMPDEST PUSH2 0x4F6 DUP2 PUSH2 0x4DC JUMP JUMPDEST DUP2 EQ PUSH2 0x500 JUMPI PUSH0 DUP1 REVERT JUMPDEST POP JUMP JUMPDEST PUSH0 DUP2 CALLDATALOAD SWAP1 POP PUSH2 0x511 DUP2 PUSH2 0x4ED JUMP JUMPDEST SWAP3 SWAP2 POP POP JUMP JUMPDEST PUSH0 PUSH1 0x20 DUP3 DUP5 SUB SLT ISZERO PUSH2 0x52C JUMPI PUSH2 0x52B PUSH2 0x4B5 JUMP JUMPDEST JUMPDEST PUSH0 PUSH2 0x539 DUP5 DUP3 DUP6 ADD PUSH2 0x503 JUMP JUMPDEST SWAP2 POP POP SWAP3 SWAP2 POP POP JUMP JUMPDEST PUSH0 DUP1 REVERT JUMPDEST PUSH0 DUP1 REVERT JUMPDEST PUSH0 DUP1 REVERT JUMPDEST PUSH0 DUP1 DUP4 PUSH1 0x1F DUP5 ADD SLT PUSH2 0x563 JUMPI PUSH2 0x562 PUSH2 0x542 JUMP JUMPDEST JUMPDEST DUP3 CALLDATALOAD SWAP1 POP PUSH8 0xFFFFFFFFFFFFFFFF DUP2 GT ISZERO PUSH2 0x580 JUMPI PUSH2 0x57F PUSH2 0x546 JUMP JUMPDEST JUMPDEST PUSH1 0x20 DUP4 ADD SWAP2 POP DUP4 PUSH1 0x1 DUP3 MUL DUP4 ADD GT ISZERO PUSH2 0x59C JUMPI PUSH2 0x59B PUSH2 0x54A JUMP JUMPDEST JUMPDEST SWAP3 POP SWAP3 SWAP1 POP JUMP JUMPDEST PUSH0 DUP1 PUSH0 PUSH1 0x40 DUP5 DUP7 SUB SLT ISZERO PUSH2 0x5BA JUMPI PUSH2 0x5B9 PUSH2 0x4B5 JUMP JUMPDEST JUMPDEST PUSH0 PUSH2 0x5C7 DUP7 DUP3 DUP8 ADD PUSH2 0x503 JUMP JUMPDEST SWAP4 POP POP PUSH1 0x20 DUP5 ADD CALLDATALOAD PUSH8 0xFFFFFFFFFFFFFFFF DUP2 GT ISZERO PUSH2 0x5E8 JUMPI PUSH2 0x5E7 PUSH2 0x4B9 JUMP JUMPDEST JUMPDEST PUSH2 0x5F4 DUP7 DUP3 DUP8 ADD PUSH2 0x54E JUMP JUMPDEST SWAP3 POP SWAP3 POP POP SWAP3 POP SWAP3 POP SWAP3 JUMP JUMPDEST PUSH0 DUP2 MLOAD SWAP1 POP SWAP2 SWAP1 POP JUMP JUMPDEST PUSH0 DUP3 DUP3 MSTORE PUSH1 0x20 DUP3 ADD SWAP1 POP SWAP3 SWAP2 POP POP JUMP JUMPDEST PUSH0 JUMPDEST DUP4 DUP2 LT ISZERO PUSH2 0x637 JUMPI DUP1 DUP3 ADD MLOAD DUP2 DUP5 ADD MSTORE PUSH1 0x20 DUP2 ADD SWAP1 POP PUSH2 0x61C JUMP JUMPDEST PUSH0 DUP5 DUP5 ADD MSTORE POP POP POP POP JUMP JUMPDEST PUSH0 PUSH1 0x1F NOT PUSH1 0x1F DUP4 ADD AND SWAP1 POP SWAP2 SWAP1 POP JUMP JUMPDEST PUSH0 PUSH2 0x65C DUP3 PUSH2 0x600 JUMP JUMPDEST PUSH2 0x666 DUP2 DUP6 PUSH2 0x60A JUMP JUMPDEST SWAP4 POP PUSH2 0x676 DUP2 DUP6 PUSH1 0x20 DUP7 ADD PUSH2 0x61A JUMP JUMPDEST PUSH2 0x67F DUP2 PUSH2 0x642 JUMP JUMPDEST DUP5 ADD SWAP2 POP POP SWAP3 SWAP2 POP POP JUMP JUMPDEST PUSH0 PUSH1 0x20 DUP3 ADD SWAP1 POP DUP2 DUP2 SUB PUSH0 DUP4 ADD MSTORE PUSH2 0x6A2 DUP2 DUP5 PUSH2 0x652 JUMP JUMPDEST SWAP1 POP SWAP3 SWAP2 POP POP JUMP JUMPDEST PUSH0 DUP2 SWAP1 POP SWAP2 SWAP1 POP JUMP JUMPDEST PUSH2 0x6BC DUP2 PUSH2 0x6AA JUMP JUMPDEST DUP2 EQ PUSH2 0x6C6 JUMPI PUSH0 DUP1 REVERT JUMPDEST POP JUMP JUMPDEST PUSH0 DUP2 CALLDATALOAD SWAP1 POP PUSH2 0x6D7 DUP2 PUSH2 0x6B3 JUMP JUMPDEST SWAP3 SWAP2 POP POP JUMP JUMPDEST PUSH0 DUP1 PUSH0 PUSH1 0x40 DUP5 DUP7 SUB SLT ISZERO PUSH2 0x6F4 JUMPI PUSH2 0x6F3 PUSH2 0x4B5 JUMP JUMPDEST JUMPDEST PUSH0 PUSH2 0x701 DUP7 DUP3 DUP8 ADD PUSH2 0x6C9 JUMP JUMPDEST SWAP4 POP POP PUSH1 0x20 DUP5 ADD CALLDATALOAD PUSH8 0xFFFFFFFFFFFFFFFF DUP2 GT ISZERO PUSH2 0x722 JUMPI PUSH2 0x721 PUSH2 0x4B9 JUMP JUMPDEST JUMPDEST PUSH2 0x72E DUP7 DUP3 DUP8 ADD PUSH2 0x54E JUMP JUMPDEST SWAP3 POP SWAP3 POP POP SWAP3 POP SWAP3 POP SWAP3 JUMP JUMPDEST PUSH0 PUSH1 0x20 DUP3 DUP5 SUB SLT ISZERO PUSH2 0x74F JUMPI PUSH2 0x74E PUSH2 0x4B5 JUMP JUMPDEST JUMPDEST PUSH0 PUSH2 0x75C DUP5 DUP3 DUP6 ADD PUSH2 0x6C9 JUMP JUMPDEST SWAP2 POP POP SWAP3 SWAP2 POP POP JUMP JUMPDEST PUSH0 DUP2 SWAP1 POP SWAP2 SWAP1 POP JUMP JUMPDEST PUSH0 PUSH2 0x788 PUSH2 0x783 PUSH2 0x77E DUP5 PUSH2 0x4BD JUMP JUMPDEST PUSH2 0x765 JUMP JUMPDEST PUSH2 0x4BD JUMP JUMPDEST SWAP1 POP SWAP2 SWAP1 POP JUMP JUMPDEST PUSH0 PUSH2 0x799 DUP3 PUSH2 0x76E JUMP JUMPDEST SWAP1 POP SWAP2 SWAP1 POP JUMP JUMPDEST PUSH0 PUSH2 0x7AA DUP3 PUSH2 0x78F JUMP JUMPDEST SWAP1 POP SWAP2 SWAP1 POP JUMP JUMPDEST PUSH2 0x7BA DUP2 PUSH2 0x7A0 JUMP JUMPDEST DUP3 MSTORE POP POP JUMP JUMPDEST PUSH0 PUSH1 0x20 DUP3 ADD SWAP1 POP PUSH2 0x7D3 PUSH0 DUP4 ADD DUP5 PUSH2 0x7B1 JUMP JUMPDEST SWAP3 SWAP2 POP POP JUMP JUMPDEST PUSH2 0x7E2 DUP2 PUSH2 0x4DC JUMP JUMPDEST DUP3 MSTORE POP POP JUMP JUMPDEST PUSH0 PUSH1 0x20 DUP3 ADD SWAP1 POP PUSH2 0x7FB PUSH0 DUP4 ADD DUP5 PUSH2 0x7D9 JUMP JUMPDEST SWAP3 SWAP2 POP POP JUMP JUMPDEST DUP3 DUP2 DUP4 CALLDATACOPY PUSH0 DUP4 DUP4 ADD MSTORE POP POP POP JUMP JUMPDEST PUSH0 PUSH2 0x81A DUP4 DUP6 PUSH2 0x60A JUMP JUMPDEST SWAP4 POP PUSH2 0x827 DUP4 DUP6 DUP5 PUSH2 0x801 JUMP JUMPDEST PUSH2 0x830 DUP4 PUSH2 0x642 JUMP JUMPDEST DUP5 ADD SWAP1 POP SWAP4 SWAP3 POP POP POP JUMP JUMPDEST PUSH0 PUSH1 0x20 DUP3 ADD SWAP1 POP DUP2 DUP2 SUB PUSH0 DUP4 ADD MSTORE PUSH2 0x854 DUP2 DUP5 DUP7 PUSH2 0x80F JUMP JUMPDEST SWAP1 POP SWAP4 SWAP3 POP POP POP JUMP JUMPDEST PUSH0 DUP1 REVERT JUMPDEST PUSH32 0x4E487B7100000000000000000000000000000000000000000000000000000000 PUSH0 MSTORE PUSH1 0x41 PUSH1 0x4 MSTORE PUSH1 0x24 PUSH0 REVERT JUMPDEST PUSH2 0x897 DUP3 PUSH2 0x642 JUMP JUMPDEST DUP2 ADD DUP2 DUP2 LT PUSH8 0xFFFFFFFFFFFFFFFF DUP3 GT OR ISZERO PUSH2 0x8B6 JUMPI PUSH2 0x8B5 PUSH2 0x861 JUMP JUMPDEST JUMPDEST DUP1 PUSH1 0x40 MSTORE POP POP POP JUMP JUMPDEST PUSH0 PUSH2 0x8C8 PUSH2 0x4AC JUMP JUMPDEST SWAP1 POP PUSH2 0x8D4 DUP3 DUP3 PUSH2 0x88E JUMP JUMPDEST SWAP2 SWAP1 POP JUMP JUMPDEST PUSH0 PUSH8 0xFFFFFFFFFFFFFFFF DUP3 GT ISZERO PUSH2 0x8F3 JUMPI PUSH2 0x8F2 PUSH2 0x861 JUMP JUMPDEST JUMPDEST PUSH2 0x8FC DUP3 PUSH2 0x642 JUMP JUMPDEST SWAP1 POP PUSH1 0x20 DUP2 ADD SWAP1 POP SWAP2 SWAP1 POP JUMP JUMPDEST PUSH0 PUSH2 0x91B PUSH2 0x916 DUP5 PUSH2 0x8D9 JUMP JUMPDEST PUSH2 0x8BF JUMP JUMPDEST SWAP1 POP DUP3 DUP2 MSTORE PUSH1 0x20 DUP2 ADD DUP5 DUP5 DUP5 ADD GT ISZERO PUSH2 0x937 JUMPI PUSH2 0x936 PUSH2 0x85D JUMP JUMPDEST JUMPDEST PUSH2 0x942 DUP5 DUP3 DUP6 PUSH2 0x61A JUMP JUMPDEST POP SWAP4 SWAP3 POP POP POP JUMP JUMPDEST PUSH0 DUP3 PUSH1 0x1F DUP4 ADD SLT PUSH2 0x95E JUMPI PUSH2 0x95D PUSH2 0x542 JUMP JUMPDEST JUMPDEST DUP2 MLOAD PUSH2 0x96E DUP5 DUP3 PUSH1 0x20 DUP7 ADD PUSH2 0x909 JUMP JUMPDEST SWAP2 POP POP SWAP3 SWAP2 POP POP JUMP JUMPDEST PUSH0 PUSH1 0x20 DUP3 DUP5 SUB SLT ISZERO PUSH2 0x98C JUMPI PUSH2 0x98B PUSH2 0x4B5 JUMP JUMPDEST JUMPDEST PUSH0 DUP3 ADD MLOAD PUSH8 0xFFFFFFFFFFFFFFFF DUP2 GT ISZERO PUSH2 0x9A9 JUMPI PUSH2 0x9A8 PUSH2 0x4B9 JUMP JUMPDEST JUMPDEST PUSH2 0x9B5 DUP5 DUP3 DUP6 ADD PUSH2 0x94A JUMP JUMPDEST SWAP2 POP POP SWAP3 SWAP2 POP POP JUMP JUMPDEST PUSH32 0x4E487B7100000000000000000000000000000000000000000000000000000000 PUSH0 MSTORE PUSH1 0x32 PUSH1 0x4 MSTORE PUSH1 0x24 PUSH0 REVERT INVALID LOG2 PUSH5 0x6970667358 0x22 SLT KECCAK256 0x2B PUSH32 0xD2F70DC984E26FFE33E45E0BE733FA792BAF66B3135BBF55485058BC90726473 PUSH16 0x6C634300081500330000000000000000 "
		},
		"gasEstimates": {
			"creation": {
				"codeDepositCost": "518600",
				"executionCost": "554",
				"totalCost": "519154"
			},
			"external": {
				"addAnimal(address)": "49025",
				"animals(uint256)": "4965",
				"callByAddress(address)": "infinite",
				"callByIndex(uint256)": "infinite",
				"feedByAddress(address,string)": "infinite",
				"feedByIndex(uint256,string)": "infinite",
				"getAnimal(uint256)": "infinite"
			}
		},
		"methodIdentifiers": {
			"addAnimal(address)": "1436163e",
			"animals(uint256)": "998dd3ca",
			"callByAddress(address)": "b53d5820",
			"callByIndex(uint256)": "9d26373c",
			"feedByAddress(address,string)": "2261a776",
			"feedByIndex(uint256,string)": "3c735ee6",
			"getAnimal(uint256)": "45d3cc81"
		}
	},
	"abi": [
		{
			"inputs": [
				{
					"internalType": "address",
					"name": "animalAddress",
					"type": "address"
				}
			],
			"name": "addAnimal",
			"outputs": [],
			"stateMutability": "nonpayable",
			"type": "function"
		},
		{
			"inputs": [
				{
					"internalType": "uint256",
					"name": "",
					"type": "uint256"
				}
			],
			"name": "animals",
			"outputs": [
				{
					"internalType": "address",
					"name": "",
					"type": "address"
				}
			],
			"stateMutability": "view",
			"type": "function"
		},
		{
			"inputs": [
				{
					"internalType": "address",
					"name": "animal",
					"type": "address"
				}
			],
			"name": "callByAddress",
			"outputs": [
				{
					"internalType": "string",
					"name": "",
					"type": "string"
				}
			],
			"stateMutability": "view",
			"type": "function"
		},
		{
			"inputs": [
				{
					"internalType": "uint256",
					"name": "index",
					"type": "uint256"
				}
			],
			"name": "callByIndex",
			"outputs": [
				{
					"internalType": "string",
					"name": "",
					"type": "string"
				}
			],
			"stateMutability": "view",
			"type": "function"
		},
		{
			"inputs": [
				{
					"internalType": "address",
					"name": "animal",
					"type": "address"
				},
				{
					"internalType": "string",
					"name": "food",
					"type": "string"
				}
			],
			"name": "feedByAddress",
			"outputs": [
				{
					"internalType": "string",
					"name": "",
					"type": "string"
				}
			],
			"stateMutability": "view",
			"type": "function"
		},
		{
			"inputs": [
				{
					"internalType": "uint256",
					"name": "index",
					"type": "uint256"
				},
				{
					"internalType": "string",
					"name": "food",
					"type": "string"
				}
			],
			"name": "feedByIndex",
			"outputs": [
				{
					"internalType": "string",
					"name": "",
					"type": "string"
				}
			],
			"stateMutability": "view",
			"type": "function"
		},
		{
			"inputs": [
				{
					"internalType": "uint256",
					"name": "index",
					"type": "uint256"
				}
			],
			"name": "getAnimal",
			"outputs": [
				{
					"internalType": "contract Animal",
					"name": "",
					"type": "address"
				}
			],
			"stateMutability": "view",
			"type": "function"
		}
	]
}